{
  "contractName": "Blokariacontract",
  "abi": [
    {
      "inputs": [],
      "stateMutability": "nonpayable",
      "type": "constructor"
    },
    {
      "stateMutability": "payable",
      "type": "fallback",
      "payable": true
    },
    {
      "inputs": [],
      "name": "owner",
      "outputs": [
        {
          "internalType": "address",
          "name": "",
          "type": "address"
        }
      ],
      "stateMutability": "view",
      "type": "function",
      "constant": true
    },
    {
      "stateMutability": "payable",
      "type": "receive",
      "payable": true
    },
    {
      "inputs": [],
      "name": "getBalance",
      "outputs": [
        {
          "internalType": "uint256",
          "name": "",
          "type": "uint256"
        }
      ],
      "stateMutability": "view",
      "type": "function",
      "constant": true
    },
    {
      "inputs": [
        {
          "internalType": "address",
          "name": "_address",
          "type": "address"
        }
      ],
      "name": "getBalanceRequster",
      "outputs": [
        {
          "internalType": "address",
          "name": "",
          "type": "address"
        }
      ],
      "stateMutability": "pure",
      "type": "function",
      "constant": true
    },
    {
      "inputs": [],
      "name": "sendEther",
      "outputs": [],
      "stateMutability": "payable",
      "type": "function",
      "payable": true
    },
    {
      "inputs": [
        {
          "internalType": "address payable",
          "name": "_recepinet",
          "type": "address"
        },
        {
          "internalType": "uint256",
          "name": "_amount",
          "type": "uint256"
        }
      ],
      "name": "tranferEther",
      "outputs": [
        {
          "internalType": "bool",
          "name": "",
          "type": "bool"
        }
      ],
      "stateMutability": "nonpayable",
      "type": "function"
    }
  ],
  "bytecode": "0x608060405234801561001057600080fd5b50336000806101000a81548173ffffffffffffffffffffffffffffffffffffffff021916908373ffffffffffffffffffffffffffffffffffffffff16021790555061056b806100606000396000f3fe60806040526004361061004e5760003560e01c80630e29df2214610057578063117873651461006157806312065fe01461009e5780635b1037d2146100c95780638da5cb5b1461010657610055565b3661005557005b005b61005f610131565b005b34801561006d57600080fd5b506100886004803603810190610083919061030c565b610144565b6040516100959190610367565b60405180910390f35b3480156100aa57600080fd5b506100b361023d565b6040516100c09190610391565b60405180910390f35b3480156100d557600080fd5b506100f060048036038101906100eb91906103ea565b610245565b6040516100fd9190610426565b60405180910390f35b34801561011257600080fd5b5061011b61024f565b6040516101289190610426565b60405180910390f35b6000808061013e90610470565b91505050565b60003373ffffffffffffffffffffffffffffffffffffffff1660008054906101000a900473ffffffffffffffffffffffffffffffffffffffff1673ffffffffffffffffffffffffffffffffffffffff16146101d4576040517f08c379a00000000000000000000000000000000000000000000000000000000081526004016101cb90610515565b60405180910390fd5b6101dc61023d565b8211610232578273ffffffffffffffffffffffffffffffffffffffff166108fc839081150290604051600060405180830381858888f19350505050158015610228573d6000803e3d6000fd5b5060019050610237565b600090505b92915050565b600047905090565b6000819050919050565b60008054906101000a900473ffffffffffffffffffffffffffffffffffffffff1681565b600080fd5b600073ffffffffffffffffffffffffffffffffffffffff82169050919050565b60006102a382610278565b9050919050565b6102b381610298565b81146102be57600080fd5b50565b6000813590506102d0816102aa565b92915050565b6000819050919050565b6102e9816102d6565b81146102f457600080fd5b50565b600081359050610306816102e0565b92915050565b6000806040838503121561032357610322610273565b5b6000610331858286016102c1565b9250506020610342858286016102f7565b9150509250929050565b60008115159050919050565b6103618161034c565b82525050565b600060208201905061037c6000830184610358565b92915050565b61038b816102d6565b82525050565b60006020820190506103a66000830184610382565b92915050565b60006103b782610278565b9050919050565b6103c7816103ac565b81146103d257600080fd5b50565b6000813590506103e4816103be565b92915050565b600060208284031215610400576103ff610273565b5b600061040e848285016103d5565b91505092915050565b610420816103ac565b82525050565b600060208201905061043b6000830184610417565b92915050565b7f4e487b7100000000000000000000000000000000000000000000000000000000600052601160045260246000fd5b600061047b826102d6565b91507fffffffffffffffffffffffffffffffffffffffffffffffffffffffffffffffff82036104ad576104ac610441565b5b600182019050919050565b600082825260208201905092915050565b7f596f7520617265206e6f7420746865206f776e65722100000000000000000000600082015250565b60006104ff6016836104b8565b915061050a826104c9565b602082019050919050565b6000602082019050818103600083015261052e816104f2565b905091905056fea26469706673582212203b0e50f90ea095c039e06ab32da79edccd2e5078617e74179b26794b370bafb264736f6c63430008130033",
  "immutableReferences": {},
  "source": "// SPDX-License-Identifier: GPL-3.0\r\n\r\npragma solidity >=0.8.2 <0.9.0;\r\n\r\ncontract Blokariacontract {\r\n\r\n    address public  owner;\r\n    constructor () {\r\n        owner = msg.sender;\r\n    }\r\n    // receive Function to receive ETH\r\n    receive() external payable {}\r\n\r\n    fallback() external payable {}\r\n\r\n    function getBalance() public view returns (uint) {\r\n        return address(this).balance;\r\n    }\r\n\r\n    function getBalanceRequster(address _address) public pure returns (address) {\r\n        return _address;\r\n    }\r\n\r\n    function sendEther() public payable {\r\n        uint x;\r\n        x++;\r\n    }\r\n    function tranferEther(address payable _recepinet, uint _amount) public returns (bool) {\r\n        require(owner == msg.sender, \"You are not the owner!\");\r\n        \r\n        if (_amount <= getBalance()) {\r\n            _recepinet.transfer(_amount);\r\n            return  true;\r\n        } else {\r\n            return  false;\r\n        }\r\n    }\r\n}\r\n",
  "sourcePath": "C:\\Users\\neman\\Documents\\CARDANO\\avalanche-transactions\\contracts\\BlokariaContract.sol",
  "compiler": {
    "name": "solc",
    "version": "0.8.19+commit.7dd6d404.Emscripten.clang"
  },
  "schemaVersion": "3.4.13",
  "updatedAt": "2023-04-16T05:59:07.559Z",
  "networkType": "ethereum",
  "devdoc": {
    "kind": "dev",
    "methods": {},
    "version": 1
  },
  "userdoc": {
    "kind": "user",
    "methods": {},
    "version": 1
  }
}